{
  "_format": "hh-sol-artifact-1",
  "contractName": "PerseCoin",
  "sourceName": "contracts/PerseCoin.sol",
  "abi": [
    {
      "inputs": [],
      "stateMutability": "nonpayable",
      "type": "constructor"
    },
    {
      "anonymous": false,
      "inputs": [
        {
          "indexed": true,
          "internalType": "address",
          "name": "owner",
          "type": "address"
        },
        {
          "indexed": true,
          "internalType": "address",
          "name": "spender",
          "type": "address"
        },
        {
          "indexed": false,
          "internalType": "uint256",
          "name": "value",
          "type": "uint256"
        }
      ],
      "name": "Approval",
      "type": "event"
    },
    {
      "anonymous": false,
      "inputs": [
        {
          "indexed": true,
          "internalType": "address",
          "name": "owner",
          "type": "address"
        },
        {
          "indexed": false,
          "internalType": "uint256",
          "name": "amount",
          "type": "uint256"
        },
        {
          "indexed": false,
          "internalType": "string",
          "name": "message",
          "type": "string"
        }
      ],
      "name": "NewTokensMinted",
      "type": "event"
    },
    {
      "anonymous": false,
      "inputs": [
        {
          "indexed": true,
          "internalType": "address",
          "name": "previousOwner",
          "type": "address"
        },
        {
          "indexed": true,
          "internalType": "address",
          "name": "newOwner",
          "type": "address"
        }
      ],
      "name": "OwnershipTransferred",
      "type": "event"
    },
    {
      "anonymous": false,
      "inputs": [
        {
          "indexed": true,
          "internalType": "address",
          "name": "owner",
          "type": "address"
        },
        {
          "indexed": false,
          "internalType": "uint256",
          "name": "amount",
          "type": "uint256"
        },
        {
          "indexed": false,
          "internalType": "string",
          "name": "message",
          "type": "string"
        }
      ],
      "name": "TokensBurned",
      "type": "event"
    },
    {
      "anonymous": false,
      "inputs": [
        {
          "indexed": true,
          "internalType": "address",
          "name": "owner",
          "type": "address"
        },
        {
          "indexed": false,
          "internalType": "uint256",
          "name": "amount",
          "type": "uint256"
        },
        {
          "indexed": false,
          "internalType": "string",
          "name": "message",
          "type": "string"
        }
      ],
      "name": "TokensMinted",
      "type": "event"
    },
    {
      "anonymous": false,
      "inputs": [
        {
          "indexed": true,
          "internalType": "address",
          "name": "from",
          "type": "address"
        },
        {
          "indexed": true,
          "internalType": "address",
          "name": "to",
          "type": "address"
        },
        {
          "indexed": false,
          "internalType": "uint256",
          "name": "value",
          "type": "uint256"
        }
      ],
      "name": "Transfer",
      "type": "event"
    },
    {
      "inputs": [
        {
          "internalType": "address",
          "name": "owner",
          "type": "address"
        },
        {
          "internalType": "address",
          "name": "spender",
          "type": "address"
        }
      ],
      "name": "allowance",
      "outputs": [
        {
          "internalType": "uint256",
          "name": "",
          "type": "uint256"
        }
      ],
      "stateMutability": "view",
      "type": "function"
    },
    {
      "inputs": [
        {
          "internalType": "address",
          "name": "spender",
          "type": "address"
        },
        {
          "internalType": "uint256",
          "name": "amount",
          "type": "uint256"
        }
      ],
      "name": "approve",
      "outputs": [
        {
          "internalType": "bool",
          "name": "",
          "type": "bool"
        }
      ],
      "stateMutability": "nonpayable",
      "type": "function"
    },
    {
      "inputs": [
        {
          "internalType": "address",
          "name": "account",
          "type": "address"
        }
      ],
      "name": "balanceOf",
      "outputs": [
        {
          "internalType": "uint256",
          "name": "",
          "type": "uint256"
        }
      ],
      "stateMutability": "view",
      "type": "function"
    },
    {
      "inputs": [
        {
          "internalType": "uint256",
          "name": "amount",
          "type": "uint256"
        }
      ],
      "name": "burn",
      "outputs": [],
      "stateMutability": "nonpayable",
      "type": "function"
    },
    {
      "inputs": [
        {
          "internalType": "address",
          "name": "account",
          "type": "address"
        },
        {
          "internalType": "uint256",
          "name": "amount",
          "type": "uint256"
        }
      ],
      "name": "burnFrom",
      "outputs": [],
      "stateMutability": "nonpayable",
      "type": "function"
    },
    {
      "inputs": [
        {
          "internalType": "uint256",
          "name": "amount",
          "type": "uint256"
        }
      ],
      "name": "burnTokens",
      "outputs": [],
      "stateMutability": "nonpayable",
      "type": "function"
    },
    {
      "inputs": [],
      "name": "decimals",
      "outputs": [
        {
          "internalType": "uint8",
          "name": "",
          "type": "uint8"
        }
      ],
      "stateMutability": "view",
      "type": "function"
    },
    {
      "inputs": [
        {
          "internalType": "address",
          "name": "spender",
          "type": "address"
        },
        {
          "internalType": "uint256",
          "name": "subtractedValue",
          "type": "uint256"
        }
      ],
      "name": "decreaseAllowance",
      "outputs": [
        {
          "internalType": "bool",
          "name": "",
          "type": "bool"
        }
      ],
      "stateMutability": "nonpayable",
      "type": "function"
    },
    {
      "inputs": [
        {
          "internalType": "address",
          "name": "spender",
          "type": "address"
        },
        {
          "internalType": "uint256",
          "name": "addedValue",
          "type": "uint256"
        }
      ],
      "name": "increaseAllowance",
      "outputs": [
        {
          "internalType": "bool",
          "name": "",
          "type": "bool"
        }
      ],
      "stateMutability": "nonpayable",
      "type": "function"
    },
    {
      "inputs": [
        {
          "internalType": "address",
          "name": "to",
          "type": "address"
        },
        {
          "internalType": "uint256",
          "name": "amount",
          "type": "uint256"
        }
      ],
      "name": "mintTokens",
      "outputs": [],
      "stateMutability": "nonpayable",
      "type": "function"
    },
    {
      "inputs": [],
      "name": "name",
      "outputs": [
        {
          "internalType": "string",
          "name": "",
          "type": "string"
        }
      ],
      "stateMutability": "view",
      "type": "function"
    },
    {
      "inputs": [],
      "name": "owner",
      "outputs": [
        {
          "internalType": "address",
          "name": "",
          "type": "address"
        }
      ],
      "stateMutability": "view",
      "type": "function"
    },
    {
      "inputs": [],
      "name": "renounceOwnership",
      "outputs": [],
      "stateMutability": "nonpayable",
      "type": "function"
    },
    {
      "inputs": [],
      "name": "symbol",
      "outputs": [
        {
          "internalType": "string",
          "name": "",
          "type": "string"
        }
      ],
      "stateMutability": "view",
      "type": "function"
    },
    {
      "inputs": [],
      "name": "totalSupply",
      "outputs": [
        {
          "internalType": "uint256",
          "name": "",
          "type": "uint256"
        }
      ],
      "stateMutability": "view",
      "type": "function"
    },
    {
      "inputs": [
        {
          "internalType": "address",
          "name": "to",
          "type": "address"
        },
        {
          "internalType": "uint256",
          "name": "amount",
          "type": "uint256"
        }
      ],
      "name": "transfer",
      "outputs": [
        {
          "internalType": "bool",
          "name": "",
          "type": "bool"
        }
      ],
      "stateMutability": "nonpayable",
      "type": "function"
    },
    {
      "inputs": [
        {
          "internalType": "address",
          "name": "from",
          "type": "address"
        },
        {
          "internalType": "address",
          "name": "to",
          "type": "address"
        },
        {
          "internalType": "uint256",
          "name": "amount",
          "type": "uint256"
        }
      ],
      "name": "transferFrom",
      "outputs": [
        {
          "internalType": "bool",
          "name": "",
          "type": "bool"
        }
      ],
      "stateMutability": "nonpayable",
      "type": "function"
    },
    {
      "inputs": [
        {
          "internalType": "address",
          "name": "newOwner",
          "type": "address"
        }
      ],
      "name": "transferOwnership",
      "outputs": [],
      "stateMutability": "nonpayable",
      "type": "function"
    }
  ],
  "bytecode": "0x60806040523480156200001157600080fd5b506040518060400160405280600981526020017f5065727365436f696e00000000000000000000000000000000000000000000008152506040518060400160405280600381526020017f5053430000000000000000000000000000000000000000000000000000000000815250816003908051906020019062000096929190620003ec565b508060049080519060200190620000af929190620003ec565b505050620000d2620000c66200019260201b60201c565b6200019a60201b60201c565b6200011033620000e76200026060201b60201c565b600a620000f5919062000691565b611388620001049190620007ce565b6200026960201b60201c565b3373ffffffffffffffffffffffffffffffffffffffff167f9d89e36eadf856db0ad9ffb5a569e07f95634dddd9501141ecf04820484ad0dc620001586200026060201b60201c565b600a62000166919062000691565b611388620001759190620007ce565b60405162000184919062000596565b60405180910390a2620008e7565b600033905090565b6000600560009054906101000a900473ffffffffffffffffffffffffffffffffffffffff16905081600560006101000a81548173ffffffffffffffffffffffffffffffffffffffff021916908373ffffffffffffffffffffffffffffffffffffffff1602179055508173ffffffffffffffffffffffffffffffffffffffff168173ffffffffffffffffffffffffffffffffffffffff167f8be0079c531659141344cd1fd0a4f28419497f9722a3daafe3b4186f6b6457e060405160405180910390a35050565b60006012905090565b600073ffffffffffffffffffffffffffffffffffffffff168273ffffffffffffffffffffffffffffffffffffffff161415620002dc576040517f08c379a0000000000000000000000000000000000000000000000000000000008152600401620002d39062000557565b60405180910390fd5b620002f060008383620003e260201b60201c565b8060026000828254620003049190620005d9565b92505081905550806000808473ffffffffffffffffffffffffffffffffffffffff1673ffffffffffffffffffffffffffffffffffffffff16815260200190815260200160002060008282546200035b9190620005d9565b925050819055508173ffffffffffffffffffffffffffffffffffffffff16600073ffffffffffffffffffffffffffffffffffffffff167fddf252ad1be2c89b69c2b068fc378daa952ba7f163c4a11628f55a4df523b3ef83604051620003c2919062000579565b60405180910390a3620003de60008383620003e760201b60201c565b5050565b505050565b505050565b828054620003fa9062000846565b90600052602060002090601f0160209004810192826200041e57600085556200046a565b82601f106200043957805160ff19168380011785556200046a565b828001600101855582156200046a579182015b82811115620004695782518255916020019190600101906200044c565b5b5090506200047991906200047d565b5090565b5b80821115620004985760008160009055506001016200047e565b5090565b6000620004ab602383620005c8565b91507f4d696e74656420696e697469616c20737570706c79206f66205065727365436f60008301527f696e2e00000000000000000000000000000000000000000000000000000000006020830152604082019050919050565b600062000513601f83620005c8565b91507f45524332303a206d696e7420746f20746865207a65726f2061646472657373006000830152602082019050919050565b62000551816200082f565b82525050565b60006020820190508181036000830152620005728162000504565b9050919050565b600060208201905062000590600083018462000546565b92915050565b6000604082019050620005ad600083018462000546565b8181036020830152620005c0816200049c565b905092915050565b600082825260208201905092915050565b6000620005e6826200082f565b9150620005f3836200082f565b9250827fffffffffffffffffffffffffffffffffffffffffffffffffffffffffffffffff038211156200062b576200062a6200087c565b5b828201905092915050565b6000808291508390505b6001851115620006885780860481111562000660576200065f6200087c565b5b6001851615620006705780820291505b80810290506200068085620008da565b945062000640565b94509492505050565b60006200069e826200082f565b9150620006ab8362000839565b9250620006da7fffffffffffffffffffffffffffffffffffffffffffffffffffffffffffffffff8484620006e2565b905092915050565b600082620006f45760019050620007c7565b81620007045760009050620007c7565b81600181146200071d576002811462000728576200075e565b6001915050620007c7565b60ff8411156200073d576200073c6200087c565b5b8360020a9150848211156200075757620007566200087c565b5b50620007c7565b5060208310610133831016604e8410600b8410161715620007985782820a9050838111156200079257620007916200087c565b5b620007c7565b620007a7848484600162000636565b92509050818404811115620007c157620007c06200087c565b5b81810290505b9392505050565b6000620007db826200082f565b9150620007e8836200082f565b9250817fffffffffffffffffffffffffffffffffffffffffffffffffffffffffffffffff04831182151516156200082457620008236200087c565b5b828202905092915050565b6000819050919050565b600060ff82169050919050565b600060028204905060018216806200085f57607f821691505b60208210811415620008765762000875620008ab565b5b50919050565b7f4e487b7100000000000000000000000000000000000000000000000000000000600052601160045260246000fd5b7f4e487b7100000000000000000000000000000000000000000000000000000000600052602260045260246000fd5b60008160011c9050919050565b611f4580620008f76000396000f3fe608060405234801561001057600080fd5b50600436106101165760003560e01c8063715018a6116100a2578063a457c2d711610071578063a457c2d7146102cf578063a9059cbb146102ff578063dd62ed3e1461032f578063f0dda65c1461035f578063f2fde38b1461037b57610116565b8063715018a61461026d57806379cc6790146102775780638da5cb5b1461029357806395d89b41146102b157610116565b8063313ce567116100e9578063313ce567146101b757806339509351146101d557806342966c68146102055780636d1b229d1461022157806370a082311461023d57610116565b806306fdde031461011b578063095ea7b31461013957806318160ddd1461016957806323b872dd14610187575b600080fd5b610123610397565b6040516101309190611ade565b60405180910390f35b610153600480360381019061014e91906114f8565b610429565b6040516101609190611ac3565b60405180910390f35b61017161044c565b60405161017e9190611c80565b60405180910390f35b6101a1600480360381019061019c91906114a9565b610456565b6040516101ae9190611ac3565b60405180910390f35b6101bf610485565b6040516101cc9190611cf7565b60405180910390f35b6101ef60048036038101906101ea91906114f8565b61048e565b6040516101fc9190611ac3565b60405180910390f35b61021f600480360381019061021a9190611534565b610538565b005b61023b60048036038101906102369190611534565b61054c565b005b61025760048036038101906102529190611444565b610623565b6040516102649190611c80565b60405180910390f35b61027561066b565b005b610291600480360381019061028c91906114f8565b6106f3565b005b61029b610713565b6040516102a89190611aa8565b60405180910390f35b6102b961073d565b6040516102c69190611ade565b60405180910390f35b6102e960048036038101906102e491906114f8565b6107cf565b6040516102f69190611ac3565b60405180910390f35b610319600480360381019061031491906114f8565b6108b9565b6040516103269190611ac3565b60405180910390f35b6103496004803603810190610344919061146d565b6108dc565b6040516103569190611c80565b60405180910390f35b610379600480360381019061037491906114f8565b610963565b005b61039560048036038101906103909190611444565b610a3b565b005b6060600380546103a690611e40565b80601f01602080910402602001604051908101604052809291908181526020018280546103d290611e40565b801561041f5780601f106103f45761010080835404028352916020019161041f565b820191906000526020600020905b81548152906001019060200180831161040257829003601f168201915b5050505050905090565b600080610434610b33565b9050610441818585610b3b565b600191505092915050565b6000600254905090565b600080610461610b33565b905061046e858285610d06565b610479858585610d92565b60019150509392505050565b60006012905090565b600080610499610b33565b905061052d818585600160008673ffffffffffffffffffffffffffffffffffffffff1673ffffffffffffffffffffffffffffffffffffffff16815260200190815260200160002060008973ffffffffffffffffffffffffffffffffffffffff1673ffffffffffffffffffffffffffffffffffffffff168152602001908152602001600020546105289190611d2e565b610b3b565b600191505092915050565b610549610543610b33565b82611013565b50565b610554610b33565b73ffffffffffffffffffffffffffffffffffffffff16610572610713565b73ffffffffffffffffffffffffffffffffffffffff16146105c8576040517f08c379a00000000000000000000000000000000000000000000000000000000081526004016105bf90611bc0565b60405180910390fd5b6105d23382611013565b3373ffffffffffffffffffffffffffffffffffffffff167ffad31924d655455395c87544c8aa1ffdb5a7505a22a3c2e03f28003b6556a75f826040516106189190611c9b565b60405180910390a250565b60008060008373ffffffffffffffffffffffffffffffffffffffff1673ffffffffffffffffffffffffffffffffffffffff168152602001908152602001600020549050919050565b610673610b33565b73ffffffffffffffffffffffffffffffffffffffff16610691610713565b73ffffffffffffffffffffffffffffffffffffffff16146106e7576040517f08c379a00000000000000000000000000000000000000000000000000000000081526004016106de90611bc0565b60405180910390fd5b6106f160006111ea565b565b610705826106ff610b33565b83610d06565b61070f8282611013565b5050565b6000600560009054906101000a900473ffffffffffffffffffffffffffffffffffffffff16905090565b60606004805461074c90611e40565b80601f016020809104026020016040519081016040528092919081815260200182805461077890611e40565b80156107c55780601f1061079a576101008083540402835291602001916107c5565b820191906000526020600020905b8154815290600101906020018083116107a857829003601f168201915b5050505050905090565b6000806107da610b33565b90506000600160008373ffffffffffffffffffffffffffffffffffffffff1673ffffffffffffffffffffffffffffffffffffffff16815260200190815260200160002060008673ffffffffffffffffffffffffffffffffffffffff1673ffffffffffffffffffffffffffffffffffffffff168152602001908152602001600020549050838110156108a0576040517f08c379a000000000000000000000000000000000000000000000000000000000815260040161089790611c40565b60405180910390fd5b6108ad8286868403610b3b565b60019250505092915050565b6000806108c4610b33565b90506108d1818585610d92565b600191505092915050565b6000600160008473ffffffffffffffffffffffffffffffffffffffff1673ffffffffffffffffffffffffffffffffffffffff16815260200190815260200160002060008373ffffffffffffffffffffffffffffffffffffffff1673ffffffffffffffffffffffffffffffffffffffff16815260200190815260200160002054905092915050565b61096b610b33565b73ffffffffffffffffffffffffffffffffffffffff16610989610713565b73ffffffffffffffffffffffffffffffffffffffff16146109df576040517f08c379a00000000000000000000000000000000000000000000000000000000081526004016109d690611bc0565b60405180910390fd5b6109e982826112b0565b3373ffffffffffffffffffffffffffffffffffffffff167f7c1a10e0904e8b2fe2dcbf0c2f9a703dad5a7ea6deb8f4264da5db9c2d79d9e782604051610a2f9190611cc9565b60405180910390a25050565b610a43610b33565b73ffffffffffffffffffffffffffffffffffffffff16610a61610713565b73ffffffffffffffffffffffffffffffffffffffff1614610ab7576040517f08c379a0000000000000000000000000000000000000000000000000000000008152600401610aae90611bc0565b60405180910390fd5b600073ffffffffffffffffffffffffffffffffffffffff168173ffffffffffffffffffffffffffffffffffffffff161415610b27576040517f08c379a0000000000000000000000000000000000000000000000000000000008152600401610b1e90611b40565b60405180910390fd5b610b30816111ea565b50565b600033905090565b600073ffffffffffffffffffffffffffffffffffffffff168373ffffffffffffffffffffffffffffffffffffffff161415610bab576040517f08c379a0000000000000000000000000000000000000000000000000000000008152600401610ba290611c20565b60405180910390fd5b600073ffffffffffffffffffffffffffffffffffffffff168273ffffffffffffffffffffffffffffffffffffffff161415610c1b576040517f08c379a0000000000000000000000000000000000000000000000000000000008152600401610c1290611b60565b60405180910390fd5b80600160008573ffffffffffffffffffffffffffffffffffffffff1673ffffffffffffffffffffffffffffffffffffffff16815260200190815260200160002060008473ffffffffffffffffffffffffffffffffffffffff1673ffffffffffffffffffffffffffffffffffffffff168152602001908152602001600020819055508173ffffffffffffffffffffffffffffffffffffffff168373ffffffffffffffffffffffffffffffffffffffff167f8c5be1e5ebec7d5bd14f71427d1e84f3dd0314c0f7b2291e5b200ac8c7c3b92583604051610cf99190611c80565b60405180910390a3505050565b6000610d1284846108dc565b90507fffffffffffffffffffffffffffffffffffffffffffffffffffffffffffffffff8114610d8c5781811015610d7e576040517f08c379a0000000000000000000000000000000000000000000000000000000008152600401610d7590611b80565b60405180910390fd5b610d8b8484848403610b3b565b5b50505050565b600073ffffffffffffffffffffffffffffffffffffffff168373ffffffffffffffffffffffffffffffffffffffff161415610e02576040517f08c379a0000000000000000000000000000000000000000000000000000000008152600401610df990611c00565b60405180910390fd5b600073ffffffffffffffffffffffffffffffffffffffff168273ffffffffffffffffffffffffffffffffffffffff161415610e72576040517f08c379a0000000000000000000000000000000000000000000000000000000008152600401610e6990611b00565b60405180910390fd5b610e7d838383611410565b60008060008573ffffffffffffffffffffffffffffffffffffffff1673ffffffffffffffffffffffffffffffffffffffff16815260200190815260200160002054905081811015610f03576040517f08c379a0000000000000000000000000000000000000000000000000000000008152600401610efa90611ba0565b60405180910390fd5b8181036000808673ffffffffffffffffffffffffffffffffffffffff1673ffffffffffffffffffffffffffffffffffffffff16815260200190815260200160002081905550816000808573ffffffffffffffffffffffffffffffffffffffff1673ffffffffffffffffffffffffffffffffffffffff1681526020019081526020016000206000828254610f969190611d2e565b925050819055508273ffffffffffffffffffffffffffffffffffffffff168473ffffffffffffffffffffffffffffffffffffffff167fddf252ad1be2c89b69c2b068fc378daa952ba7f163c4a11628f55a4df523b3ef84604051610ffa9190611c80565b60405180910390a361100d848484611415565b50505050565b600073ffffffffffffffffffffffffffffffffffffffff168273ffffffffffffffffffffffffffffffffffffffff161415611083576040517f08c379a000000000000000000000000000000000000000000000000000000000815260040161107a90611be0565b60405180910390fd5b61108f82600083611410565b60008060008473ffffffffffffffffffffffffffffffffffffffff1673ffffffffffffffffffffffffffffffffffffffff16815260200190815260200160002054905081811015611115576040517f08c379a000000000000000000000000000000000000000000000000000000000815260040161110c90611b20565b60405180910390fd5b8181036000808573ffffffffffffffffffffffffffffffffffffffff1673ffffffffffffffffffffffffffffffffffffffff16815260200190815260200160002081905550816002600082825461116c9190611d84565b92505081905550600073ffffffffffffffffffffffffffffffffffffffff168373ffffffffffffffffffffffffffffffffffffffff167fddf252ad1be2c89b69c2b068fc378daa952ba7f163c4a11628f55a4df523b3ef846040516111d19190611c80565b60405180910390a36111e583600084611415565b505050565b6000600560009054906101000a900473ffffffffffffffffffffffffffffffffffffffff16905081600560006101000a81548173ffffffffffffffffffffffffffffffffffffffff021916908373ffffffffffffffffffffffffffffffffffffffff1602179055508173ffffffffffffffffffffffffffffffffffffffff168173ffffffffffffffffffffffffffffffffffffffff167f8be0079c531659141344cd1fd0a4f28419497f9722a3daafe3b4186f6b6457e060405160405180910390a35050565b600073ffffffffffffffffffffffffffffffffffffffff168273ffffffffffffffffffffffffffffffffffffffff161415611320576040517f08c379a000000000000000000000000000000000000000000000000000000000815260040161131790611c60565b60405180910390fd5b61132c60008383611410565b806002600082825461133e9190611d2e565b92505081905550806000808473ffffffffffffffffffffffffffffffffffffffff1673ffffffffffffffffffffffffffffffffffffffff16815260200190815260200160002060008282546113939190611d2e565b925050819055508173ffffffffffffffffffffffffffffffffffffffff16600073ffffffffffffffffffffffffffffffffffffffff167fddf252ad1be2c89b69c2b068fc378daa952ba7f163c4a11628f55a4df523b3ef836040516113f89190611c80565b60405180910390a361140c60008383611415565b5050565b505050565b505050565b60008135905061142981611ee1565b92915050565b60008135905061143e81611ef8565b92915050565b60006020828403121561145657600080fd5b60006114648482850161141a565b91505092915050565b6000806040838503121561148057600080fd5b600061148e8582860161141a565b925050602061149f8582860161141a565b9150509250929050565b6000806000606084860312156114be57600080fd5b60006114cc8682870161141a565b93505060206114dd8682870161141a565b92505060406114ee8682870161142f565b9150509250925092565b6000806040838503121561150b57600080fd5b60006115198582860161141a565b925050602061152a8582860161142f565b9150509250929050565b60006020828403121561154657600080fd5b60006115548482850161142f565b91505092915050565b61156681611db8565b82525050565b61157581611dca565b82525050565b600061158682611d12565b6115908185611d1d565b93506115a0818560208601611e0d565b6115a981611ed0565b840191505092915050565b60006115c1602383611d1d565b91507f45524332303a207472616e7366657220746f20746865207a65726f206164647260008301527f65737300000000000000000000000000000000000000000000000000000000006020830152604082019050919050565b6000611627602283611d1d565b91507f45524332303a206275726e20616d6f756e7420657863656564732062616c616e60008301527f63650000000000000000000000000000000000000000000000000000000000006020830152604082019050919050565b600061168d602683611d1d565b91507f4f776e61626c653a206e6577206f776e657220697320746865207a65726f206160008301527f64647265737300000000000000000000000000000000000000000000000000006020830152604082019050919050565b60006116f3602283611d1d565b91507f45524332303a20617070726f766520746f20746865207a65726f20616464726560008301527f73730000000000000000000000000000000000000000000000000000000000006020830152604082019050919050565b6000611759601183611d1d565b91507f4275726e6564205065727365436f696e2e0000000000000000000000000000006000830152602082019050919050565b6000611799601d83611d1d565b91507f45524332303a20696e73756666696369656e7420616c6c6f77616e63650000006000830152602082019050919050565b60006117d9602683611d1d565b91507f45524332303a207472616e7366657220616d6f756e742065786365656473206260008301527f616c616e636500000000000000000000000000000000000000000000000000006020830152604082019050919050565b600061183f602083611d1d565b91507f4f776e61626c653a2063616c6c6572206973206e6f7420746865206f776e65726000830152602082019050919050565b600061187f601583611d1d565b91507f4d696e746564206e6577205065727365436f696e2e00000000000000000000006000830152602082019050919050565b60006118bf602183611d1d565b91507f45524332303a206275726e2066726f6d20746865207a65726f2061646472657360008301527f73000000000000000000000000000000000000000000000000000000000000006020830152604082019050919050565b6000611925602583611d1d565b91507f45524332303a207472616e736665722066726f6d20746865207a65726f20616460008301527f64726573730000000000000000000000000000000000000000000000000000006020830152604082019050919050565b600061198b602483611d1d565b91507f45524332303a20617070726f76652066726f6d20746865207a65726f2061646460008301527f72657373000000000000000000000000000000000000000000000000000000006020830152604082019050919050565b60006119f1602583611d1d565b91507f45524332303a2064656372656173656420616c6c6f77616e63652062656c6f7760008301527f207a65726f0000000000000000000000000000000000000000000000000000006020830152604082019050919050565b6000611a57601f83611d1d565b91507f45524332303a206d696e7420746f20746865207a65726f2061646472657373006000830152602082019050919050565b611a9381611df6565b82525050565b611aa281611e00565b82525050565b6000602082019050611abd600083018461155d565b92915050565b6000602082019050611ad8600083018461156c565b92915050565b60006020820190508181036000830152611af8818461157b565b905092915050565b60006020820190508181036000830152611b19816115b4565b9050919050565b60006020820190508181036000830152611b398161161a565b9050919050565b60006020820190508181036000830152611b5981611680565b9050919050565b60006020820190508181036000830152611b79816116e6565b9050919050565b60006020820190508181036000830152611b998161178c565b9050919050565b60006020820190508181036000830152611bb9816117cc565b9050919050565b60006020820190508181036000830152611bd981611832565b9050919050565b60006020820190508181036000830152611bf9816118b2565b9050919050565b60006020820190508181036000830152611c1981611918565b9050919050565b60006020820190508181036000830152611c398161197e565b9050919050565b60006020820190508181036000830152611c59816119e4565b9050919050565b60006020820190508181036000830152611c7981611a4a565b9050919050565b6000602082019050611c956000830184611a8a565b92915050565b6000604082019050611cb06000830184611a8a565b8181036020830152611cc18161174c565b905092915050565b6000604082019050611cde6000830184611a8a565b8181036020830152611cef81611872565b905092915050565b6000602082019050611d0c6000830184611a99565b92915050565b600081519050919050565b600082825260208201905092915050565b6000611d3982611df6565b9150611d4483611df6565b9250827fffffffffffffffffffffffffffffffffffffffffffffffffffffffffffffffff03821115611d7957611d78611e72565b5b828201905092915050565b6000611d8f82611df6565b9150611d9a83611df6565b925082821015611dad57611dac611e72565b5b828203905092915050565b6000611dc382611dd6565b9050919050565b60008115159050919050565b600073ffffffffffffffffffffffffffffffffffffffff82169050919050565b6000819050919050565b600060ff82169050919050565b60005b83811015611e2b578082015181840152602081019050611e10565b83811115611e3a576000848401525b50505050565b60006002820490506001821680611e5857607f821691505b60208210811415611e6c57611e6b611ea1565b5b50919050565b7f4e487b7100000000000000000000000000000000000000000000000000000000600052601160045260246000fd5b7f4e487b7100000000000000000000000000000000000000000000000000000000600052602260045260246000fd5b6000601f19601f8301169050919050565b611eea81611db8565b8114611ef557600080fd5b50565b611f0181611df6565b8114611f0c57600080fd5b5056fea26469706673582212201bc9287e9d06a70b6fe7565b67846f7190ed1ec4853212e524744d9eec75577d64736f6c63430008000033",
  "linkReferences": {},
  "deployedLinkReferences": {}
}